:100000000020002041780000697A00006D7A00002D
:10001000717A0000757A0000797A0000197B00007F
:10002000197B0000197B0000197B00007D7A00001D
:10003000817A0000197B0000857A0000897A00002F
:100040008D7A0000917A0000957A0000997A00007C
:100050009D7A0000A17A0000C34600009746000088
:10006000A57A00002D63000039630000C55D000023
:10007000CF5D0000A97A0000AD7A0000A7690000FA
:10008000BF690000B17A0000B57A0000896C0000F9
:10009000276A0000316A0000B97A0000BD7A0000CA
:1000A000CB690000D5690000F9690000036A00000F
:1000B000C17A0000C57A0000C97A0000CD7A00003C
:1000C000D17A0000D57A0000D97A0000DD7A0000EC
:1000D000E17A0000E57A0000E97A0000ED7A00009C
:1000E000D95D00003F460000B369000001460000F2
:1000F000F17A0000F57A00006B420000197B0000E5
:10010000197B0000197B0000197B0000197B00009F
:10011000197B0000197B0000197B0000197B00008F
:10012000F97A0000FD7A0000017B0000057B0000E9
:10013000097B00000D7B0000117B0000157B000097
:10014000FFFFFFFFFFFFFFFFFFFFFFFFFFFFFFFFBF
:10015000FFFFFFFFFFFFFFFFFFFFFFFFFFFFFFFFAF
:10016000FFFFFFFFFFFFFFFFFFFFFFFFFFFFFFFF9F
:10017000FFFFFFFFFFFFFFFFFFFFFFFFFFFFFFFF8F
:10018000FFFFFFFFFFFFFFFFFFFFFFFFFFFFFFFF7F
:1001900003329CA77F000000FFFFFFFFFFFFFFFF70
:1001A000FFFFFFFFFFFFFFFFFFFFFFFFFFFFFFFF5F
:1001B000FFFFFFFFFFFFFFFFFFFFFFFFFFFFFFFF4F
:1001C000FFFFFFFFFFFFFFFFFFFFFFFFFFFFFFFF3F
:1001D000FFFFFFFFFFFFFFFFFFFFFFFFFFFFFFFF2F
:1007F000FFFFFFFFFFFFFFFFFFFFFFFFA3022E0C26
:100800002DE9F0439FB00FF29C16269CDFF8E48A96
:1008100002918DF83B4000210B914FF0FF370446C9
:1008200091461D460AE019F8011B0298A0470028CE
:10083000029000F0A4800B98401C0B9099F80000E7
:1008400050B12528EFD10020002105900691079096
:10085000089109900A9103E00B98A7E041F001018B
:1008600019F8010F2028F9D023280CD02B2804D008
:100870002D2805D0302809D083E041F00201EFE7B0
:1008800041F00401ECE741F00801E9E741F0100113
:10089000E6E700200D900AE00D98404505DA00EBF0
:1008A000800302EB4302303A0D9209F1010999F8F5
:1008B0000020A2F130000A28EED399F800002E287B
:1008C00018BF0C9726D119F8010F2A2808D12868DB
:1008D000286009F1010950F8042B28600C9219E0F6
:1008E0002D280CBF19F8010B002000220C920BE000
:1008F00040B90C9A424505DA02EB820203EB42034F
:10090000303B0C9309F1010999F80030A3F1300252
:100910000A2AEDD3ADF83810304699F8001000F0EF
:10092000BDFE08B119F8010B8DF83A009DF83A00A8
:10093000682804BF99F80010682903D162208DF857
:100940003A0008E06C2804BF99F800006C2804D134
:1009500071218DF83A1009F1010910A804902A4676
:1009600019F8013B6946204600F060F838B910AA32
:100970006946204600F08CF900287FF55FAF3846C5
:1009800014E02A2885D12A682A6052F8040B2A60CC
:1009900000280D9003D540420D9041F0040109F16B
:1009A00001098AE7686A6C747A4C00001FB0BDE8E0
:1009B000F083622820D0682811D06A2803D06C28E0
:1009C00027D0712825D10868C01D20F007000860D5
:1009D000D0E9002308300860194610467047002A05
:1009E0000A680A60106803D0121D0A6000B217E09E
:1009F000121D0A6080B217E0002A0A680A601068B7
:100A000003D0121D0A6040B20AE0121D0A60C0B293
:100A10000AE0002A0A680A60106803D0121D0A6002
:100A2000C1177047121D0A600021704770B51C463F
:100A30000D46B4F125002E69114600F017811C38CF
:100A40006AD0001F022867D9133843D0093863D011
:100A5000801E16D0401E1ED0401E02285CD9001FEA
:100A600019D0401F00F08380401E33D0401E00F09C
:100A7000CD80C01E00F0D880801E2BD0C01E29D093
:100A8000FAE06869421C6A610A680A6052F8043B2D
:100A90000A603354FAE095F83A000122FFF789FF23
:100AA000C5E900010023994204DA6869411C6961C3
:100AB0002D210DE0288F810704D56869411C6961EB
:100AC0002B2105E0C00722D56869411C69612021FE
:100AD00031541CE095F83A000022FFF76AFFC5E99F
:100AE000000195F83800010711D5D5E90023002051
:100AF000834208BF82420AD044F02000782806D101
:100B0000686930213154401C411C696134542146CC
:100B100068693044E86083E00868C01D20F0070081
:100B20000860D0E9002308300860C5E90023D5E952
:100B30000001C80F04D06869411C69612D210DE0D6
:100B4000288F810704D56869411C69612B2105E064
:100B5000C00704D56869411C696120213154686966
:100B60003044E8602146284600F0C4F98EE005F1E3
:100B70003A02507820B14FF0FF340FF648205EE083
:100B80001078622808D0682824D06A2812D06C28EF
:100B90002ED071280ED02BE00A680A6052F8040BA0
:100BA0000A6020B94FF0FF340FF6302047E0E96AC1
:100BB00001706BE00A680A6052F8040B0A6020B901
:100BC0004FF0FF340FF6142039E0EA6AD317C0E97A
:100BD00000235BE00A680A6052F8040B0A6020B93F
:100BE0004FF0FF340FF6F41029E0E96A01804DE080
:100BF0000A680A6052F8040B0A6020B94FF0FF340B
:100C00000FF6D8101BE0E96A01603FE00A680A604D
:100C100052F8040B0A600021C5E90001EE6078215A
:100C2000284600F0BBF831E00868086050F8044B33
:100C30000860EC603CB94FF0FF340FF6B81000F0DC
:100C40003DFD201A70BD2E6B002E04D5204600F00D
:100C500057FD044608E032460021204600F06CFDB6
:100C6000002814BF041B3446AC610FE06869411CC6
:100C700069612521315409E06969481C68612522B0
:100C80007254210002D0411C69613454002070BDAF
:100C90002DE9FC410F460646796B7869BC6A091A52
:100CA000386A091AB869091A786A091AF869091AB2
:100CB00097F838000C1B410790460FD42021002CD8
:100CC0008DF800100ADD254601236A463946304674
:100CD00000F060FC00285DD16D1EF5D17B694246B5
:100CE0003946304600F056FC002853D130208DF8AC
:100CF00000003D6A002D09DD01236A463946304671
:100D000000F048FC002845D16D1EF5D1BB69FA689A
:100D10003946304600F03EFC00283BD130208DF8AB
:100D200000007D6A002D08DD01236A463946304601
:100D300000F030FC70BB6D1EF6D1F868B969FB6934
:100D400042183946304600F025FC18BB30208DF89B
:100D50000000BD6A002D08DD01236A463946304691
:100D600000F018FCB0B96D1EF6D197F838004107B5
:100D70000DD52021002C8DF8001008DD01236A46D6
:100D80003946304600F006FC20B9641EF6D100203A
:100D9000BDE8F6814FF0FF30BDE8F6812DE9FC4754
:100DA00007468A463E69BAF16F0F08BF082405D08E
:100DB0004AF02001782914BF0A2410243C25D7E9E1
:100DC0000023BAF1640F18BFBAF1690F9046994633
:100DD00006D100218B4203DAD8F1000869EB4909FA
:100DE0000020814508BF80451FD1386BE8B9082C29
:100DF0004CD197F83800010748D530203B2586F8BC
:100E00003B0043E000280ED597F8380000F01400AE
:100E1000102808D17A6B7869121A386A121A511A96
:100E20000029C8BF3962BDE8F3878DF800A04046AD
:100E300049462246E31700F0ABFC3032D0B26D1EBB
:100E40003A28019504DB9DF80000A0F151018A18B1
:100E50007255404649462246E31700F099FC804609
:100E600089460020814508BF804503D0F868711984
:100E70008842DCD3082C09D197F83800010705D542
:100E8000715D302902D06D1E30207055C5F13C01D6
:100E9000B9617019F860386B8142B3DA411A39626E
:100EA0004FF6EF70398F01403987BDE8F3872DE9A0
:100EB000D04306460F4614464FF00008DFF838943A
:100EC00012E0E00707D542464B463046394600F06F
:100ED00077FD06460F464046494642464B4600F0DF
:100EE0006FFD641080468946002CEAD130463946B1
:100EF000BDE8D0832DE9F34F054641F020048DB0C5
:100F0000D5E90089612C02AE09D0286B002848BFC2
:100F1000062003D408BF672C01D101202863D5E93E
:100F2000002358004015401C0ED119030CD003209B
:100F3000A8619DF8380061381A2802D20FF2D061FA
:100F400011E00FF2D0610EE058004015401C0FD1A7
:100F500019030DD10320A8619DF8380061381A28C3
:100F600014D30FF2B861E868032200F0FBFDD3E16F
:100F7000194621F00043B3F5801F10460DD200271B
:100F8000BB4208BFBA42019703D111E00FF288615A
:100F9000E9E701AA00F03AFE0AE0DFF8607307EB28
:100FA0001352DFF85C3301921940DFF858331943CC
:100FB000C5E90001612C0ED1E86830210170811C67
:100FC000E9609DF8381061290CBF782158214170E3
:100FD0006869801C6861D5E900AB2BF000430020F4
:100FE0002AF00002834204BF8242002300F05A81AB
:100FF000612C40F0A980286B00284CBF2120401CA8
:1010000000904046009F7F1C49460022002300F0CC
:1010100035FED94601988DF8082038BF89F000497F
:10102000001F0190002FD0460DF1090040F34981C7
:1010300040F2FF71DFF8D0B20C91064640464946B7
:101040000022002300F032FE80F03A814800400D7B
:1010500000F11C0210D0002A0EDD0C98824205DB44
:1010600009F0004040EA0B01002013E0A4480840CA
:1010700040EA025140460DE029F00043002028F0EC
:101080000002834208BF82420FBF40461C224046F6
:1010900000F024FE8046894600F0BEFEFF1F002FB0
:1010A000044609DD00F0D6FE02460B46404649469E
:1010B00000F0E2FE80468946F01D072104E004F0BE
:1010C0000F0200F8012D2411002C01DD491EF6D578
:1010D000491E5CBF002200F8012DF9D5ECE000208C
:1010E000194602AA0A4400E05B1E12F80149491E93
:1010F0008442F9D00F2804D10DF10900425C521C42
:101100004254002904D50198001D02AE5B1C0190D9
:10111000591E12D49DF838007218147804F1300862
:101120005FFA88F4392CC4BFA0F13A04A044491EE8
:1011300002F80189F1D58DF83800286B002840F1BC
:10114000B080591E2963ACE0404649460022002386
:1011500000F094FD019938BF89F0004947F297509B
:1011600041436A4A91FBF2F20192D2F1070204DD97
:1011700040464946FFF79BFE0AE052420020644980
:10118000FFF795FE02460B464046494600F0E6FE54
:101190008046662C286BDFF87CB106BF019F0A37BA
:1011A00006273F18142FC8BF142730208DF80800D9
:1011B00089460DF1090000E03046002F34DD064677
:1011C0004046494600F0EEFF01460A4606F1080394
:1011D00004200A26B2FBF6F606EB860EA2EB4E02C0
:1011E000303203F8012C0A22B6FBF2F202EB820E37
:1011F000A6EB4E063036401E03F8026DE9D1083FDB
:10120000002F03F10806D7DD084600F0DFFF024695
:101210000B464046494600F02FFE00225B4600F098
:10122000CFFB80468946CBE70DF10901401A0DF14D
:10123000090604E00199491E401E0191761C31788F
:101240003029F7D0662C02D10199491C03E0652CA6
:101250000CBF012100212B6BCB189842B8BF431E55
:10126000002B1ED4834204DAF05C3528A8BF392055
:1012700000DA30201946721E02EB010800E05B1E06
:1012800018F80199491E8145F9D0392802D1705CBE
:10129000401C7054002904D50198401C16465B1C64
:1012A0000190019800B200901BB29DF838103246B0
:1012B000284600F034F82FE0C61D002F3FF7BEAEE1
:1012C00030460DF10901401A009903468842C8BF13
:1012D0000B46002B0DF109063FF52FAF8342BFF6F9
:1012E000FEAE0DF10900C05C07287FF7F8AE0F20B5
:1012F000F6E60000CBCCCC0C0000244002FCFFFF43
:10130000FFFF0F800000E03F0000F07FA08601009B
:101310000000F03F84D797410FB0BDE8F08F2DE972
:10132000F84783B006468A461746984600F05CFFA9
:10133000B8F1000F406A356B90F8009003DC4FF075
:1013400001080FF2DC27BDF930404AF02000662882
:1013500008BF641C15D0672840F0848014F1040F86
:10136000C0F28680AC4280F2838096F83800641C1C
:10137000010702D4A845B8BF454620B22D1A48BF80
:1013800000250FFA84FAF068B169BAF1000F25DC84
:101390004A1C30234354002D03DC96F83800010723
:1013A00003D5F06800F80290521C15EB0A0FB8BF85
:1013B0006C4220B2441941424445B8BFA046B261D4
:1013C00071620FFA88F5F561F068B3692A4639460B
:1013D000184400F0C7FB641BB462C4E022B290451D
:1013E000084417DA4246394600F0BCFBB069404475
:1013F000B061AAEB0801002D716203DC96F8381089
:101400000A0705D5F16801F80090F069401CF06109
:10141000B562A8E0394600F0A5FBB069002D504444
:10142000A8EB040803DC96F838100A0703D5F16826
:1014300001F80090401CB0610FFA88F08542F06816
:10144000B369B8BFA8460FFA88F207EB0A0118443F
:1014500000F088FBB0690FFA88F10844B061681A9F
:10146000706280E0BAF1610F14D14FF0700A16E09B
:10147000A84504DA96F838100A0758BF45466D1E8D
:1014800048BF0025BAF1670F14BF4FF0450A4FF06F
:10149000650A04E0BAF1410F08BF4FF0500AB16984
:1014A000F368481CB061002D17F8012B5A5403DC77
:1014B00096F838100A071BD5F168431CB36101F890
:1014C0000090002D14DDA8F101080FFA88F0854284
:1014D000F068B8BFA8460FFA88F23946184400F001
:1014E00041FBB0690FFA88F108446D1AB06175626A
:1014F000F068B1690844002C80F800A003D42B21C7
:101500004170811C03E02D2141706442811C002048
:101510006A460AE023460A2493FBF4F404EB8405AC
:10152000A3EB450302F8013B401C24B2002CF1DC84
:10153000012806DC4AF02002652A04BF302201F8A7
:10154000012B48B9302001F8010B07E0401E1DF8BF
:101550000020303201F8012B0028F7DCF068B26976
:101560001044091AF16196F8380000F014001028B0
:101570000DD17169B0694118706A4118F06941185C
:10158000B06A4118706B8142BCBF411A316204B02D
:10159000BDE8F087F8B505460E4617461C46002004
:1015A00074B117F8011BB068A847B06030B1F06A99
:1015B000401CF0620020641EF3D1F2BD4FF0FF30FA
:1015C000F2BD00007072696E74665F733A20256E1A
:1015D00020646973616C6C6F776564007072696E0A
:1015E00074663A2062616420256E20617267756DB1
:1015F000656E74007072696E74665F733A20626122
:101600006420257320617267756D656E740000003B
:101610006E616E004E414E00696E6600494E460096
:101620003000F0B40246106895681318506803EB58
:101630005004C00721D54D441FE0F0BC02F10C005E
:10164000704713F8017B05F8017B491EF9D1A0B161
:10165000B60813F8011B06F00306032E08BF13F8A3
:10166000016B01EB06214942801C294405D011F889
:10167000016B05F8016B401EF9D1A342DDD013F8D0
:10168000016B16F0030104BF13F8011BC91C3009DC
:101690000F28DAD113F8010B0F30D6E70278C9B260
:1016A0008A421AB11CBF10F8012FF9E718BF0020B9
:1016B00070470268531C03601170704780B508B909
:1016C0000FF21C0005490B681BB12222002198472C
:1016D00001E000F08FFD222002BD0000EC0D002093
:1016E000636F6E73747261696E742068616E646C8E
:1016F00065723A20626164206D657373616765008D
:1017000000F10103810704D010F8011B89B18107A2
:10171000FAD10268B2F10131914311F0803F04BF68
:1017200050F8042FF6E710F8011B11B110F8011B57
:10173000FBE7C01A70470000C9B2830706D0521EEB
:1017400022D310F8013B9942F7D11FE0083A13D396
:1017500002F1040241EA012141EA014150F8043B4F
:10176000121F21BF4B40A3F1013C2CEA030C1CF0DB
:10177000803FF3D0C9B2001F083210F8013B521E5F
:1017800028BF91EA030FF8D818BF0120401E704708
:10179000B3BBD9B1B2F5803F7DD2022A1ED98C46A7
:1017A000B1FBF2F102FB11C31B0443EA1043B3FB8C
:1017B000F2FC02FB1C3380B240EA0343B3FBF2F0BD
:1017C00002FB103240EA0C4000237047022A05D980
:1017D0008446B0FBF2F002FB10C270474AB105D15B
:1017E00000F0010249085FEA300070470022002340
:1017F000704700F003BD0B0002000021002070477D
:10180000904271EB030CF6D3B3F5803F2FD2F0B5C5
:10181000B3FA83F7B1FA81F4A7F10F0E3D1B5340E1
:10182000CEF1200602FA0EF2F3415340B5F10F0754
:1018300046D80F3C2C444140C4F12006A040F14161
:101840004140B1FBF3F603FB1611A2FB0645001B5A
:10185000A94102D2761E8018594180EA010221FA7C
:101860000EF362FA0EF200215A403046F0BD30B459
:10187000B1FBF3FC03FB1C11A2FB0C45001BA941AF
:1018800003D2ACF1010C8018594130BC02460B4622
:10189000604600217047B2F1807F65D3F0B5B2FA9F
:1018A00082F7B1FA81F4C7F10F063D1B22FA06F365
:1018B00007F1110EF24120355A40B5F10F07B8D9A2
:1018C0004140C4F12006A040F1414140B1FBF3FC8E
:1018D00003FB1C11A2FB0C45001BA94103D2BCF168
:1018E000010C801859410F2F12D30F3FC90341EA51
:1018F0005041B1FBF3F603FB1611A2FB0645D4EBF6
:10190000C030A94102D2761E8018594146EACC3C2B
:1019100007B34140C7F12006B840F1414140B1FB57
:10192000F3F603FB1611A2FB0645001BA94102D2E8
:10193000761E8018594180EA010221FA0EF3C7F1A0
:10194000200462FA0EF20CFA07F05A402CFA04F165
:101950003043F0BD80EA010221FA0EF3002162FA61
:101960000EF260465A40F0BD8C46B1FBF2F102FB2C
:1019700011C31B0243EA1063B3FBF2FC02FB1C33EE
:101980001B024CEA002043EA1063B3FBF2FC02FBAB
:101990001C331B024CEA002043EA1063B3FBF2FC49
:1019A00002FB1C331B024CEA002043EA1063B3FB2A
:1019B000F2FC02FB1C324CEA0020002370470000BE
:1019C000B0B581EA030C0CF0004C40F2FF7515EA4B
:1019D00011541DBF15EA1357AC42AF4239E0E41968
:1019E00023EA455343F48013C90241F0004141EA20
:1019F000505EC7021100A7FB020200284FF0000052
:101A0000EEFB01204FF00001E3FB072118BF42F07D
:101A10000102401800214941E3FB0E01A4F5806456
:101A20000F0302D252004041494154F101046CDDE0
:101A3000470872F1004250F1000051EB0451A1F54A
:101A400080115CBF41EA0C01B0BD4CEA0551002099
:101A5000B0BD05EA1357AC4214BFAF4241E050EAB3
:101A6000410E1CBF52EA430E02E061460020B0BDA9
:101A700024423C441BD15FEA070EF6D0090302BFA3
:101A800001460020AEF1140EB1FA81F7AEEB070467
:101A900001FA07FE0C37C7F1200100FA07F7C8402A
:101AA0004EEA000E23EA455343F48013A2E733F0D5
:101AB0000043B3FA83F704BFB2FA82FE77440B3FC8
:101AC000E41BB7F1200E2FBF02FA0EF3BB40C7F1A3
:101AD000200E22FA0EFE38BF43EA0E03BA40641C01
:101AE00082E750EA410E14BF52EA430E6FF0000144
:101AF0004FF4001717EB430F8ABF194617EB410F3E
:101B0000B5E74CEA05510020B0BDD4F10104B4F1B1
:101B100020070FDAC4F12007520828BF42F0010263
:101B200010FA07F501FA07F7E1BF2A43E04038430E
:101B3000E1400FE0352C98DCC7F1200452EA400266
:101B400020FA07F218BF42F0010231FA07F0A14073
:101B50000A43002172F1004250F1000051EB0C01E8
:101B6000B0BD000062B38B0708D0521E11F8013BD4
:101B700000F8013B00F024808B07F6D1830740F08A
:101B8000208000BF103A07D330B4B1E83810103AC3
:101B9000A0E83810F9D230BC530724BFB1E80810D0
:101BA000A0E8081044BF51F8043B40F8043BD207BA
:101BB00024BF31F8022B20F8022B44BF0B780370AE
:101BC0007047121F17D35B0009D151F8043B20F86E
:101BD000023B1B0C121F20F8023BF6D20BE051F81F
:101BE000043B00F8013B1B0A20F8023B1B0C121FB0
:101BF00000F8013BF3D238BF121D521E24BF11F86A
:101C0000013B00F8013BF8D87047000010B51446BE
:101C100000F002F8226010BDC1F30A5343B14A003C
:101C200012F5001F28D2A3F2FE32A1EB0251704739
:101C300050EA410C20D001F0004C31EA0C01B1FA1D
:101C400081F204BFB0FA80F3D2180B3AB2F120034C
:101C50002CBF00FA03F1914041EA0C013EBFC2F1F2
:101C6000200C20FA0CF319439040524240F2FD330D
:101C7000D21A01EB03517047002270474FF4001C49
:101C80001CEB410F94BF1CEB430F09E041EA030C2E
:101C900050EA4C0C52EA0C0C03D2994208BF904215
:101CA000704714BF8B428242704700004FF4001C03
:101CB0001CEB410F94BF1CEB430F09E041EA030CFE
:101CC00050EA4C0C52EA0C0C03D28B4208BF824201
:101CD000704714BF9942904270470000124254D49A
:101CE00040F2FF7C1CEA11530FD0634531D09B18A2
:101CF00063453CBF01EB0251704701F0004141EAEE
:101D00000C510020AFF30080704750EA410320D00F
:101D100001F0004C91EA0C011CD0B1FA81F30B3BAD
:101D20009A420DD9D21A994051EA0C01C3F1200C04
:101D300020FA0CFC61449840531C40F2FF7CD7E72A
:101D4000914041EA0C01C2F1200C20FA0CF3194336
:101D500090407047B0FA80F31533202BE0D3202A4F
:101D6000EED3203A203B9A4209D9D21A00FA03F165
:101D700041EA0C010020531C40F2FF7CB8E700FA56
:101D800002F141EA0C0100207047524240F2FF7C10
:101D90001CEA11530DD06345DBD0B2EB030C3CBF02
:101DA000A1EB025170470CF1010221EA035141F409
:101DB000801150EA410CCCD001F0004C352A27DCD0
:101DC00030B481EA0C01B2F1200309DAC2F1200338
:101DD000044601FA03F5D0402843D1409C400CE072
:101DE000C3F12002450020FA03F418BF44F00104B7
:101DF00021FA03F091400C43002174F1004550F1A9
:101E0000000051EB0C01244230BC7FF47BAF7047E3
:101E10006146002076E70000C1F30A5340F2FE322B
:101E20009B1A14DDD3F120034FEAE17208DDC902E9
:101E300041EA505141F00040D8408018504070476E
:101E400003F2E13010B1D24382F00040704700202D
:101E500070470000C11768B14840401AB0FA80F2DC
:101E60009040D21CC907C2F5846241EA025202EBDB
:101E7000D02140057047000070B44FF0004591EA52
:101E8000030F40F1C5816B40841A71EB030603D246
:101E9000001BB141121973414FF4001C1CEB410FA0
:101EA00034BF7CEB430442E00C0DA4EB1356352EFB
:101EB0004FDC45EAC323DB0A45EAC121C912B6F16A
:101EC00020050DDD63FA05F6EB4086EA03051242B4
:101ED00018BF45F00105C01851F100010CD213E004
:101EE00062FA06F5F2405540F3415A40B340F340E0
:101EF0005A408018594107D349085FEA30005FEA29
:101F0000350528BF45F0010501F58011420875F13E
:101F1000004250F1000041EB04514E0016F5001F45
:101F200070BC38BF70470020090D090570471CEBD5
:101F3000410F10D252EA43060BD0BCEB410F05D83B
:101F40000C0DAB43661E342EB6DD02E0AB438018A9
:101F5000594170BC704770BC70470000F0B540F24A
:101F6000FF7581EA030C0CF0004C15EA11541DBFFB
:101F700015EA1357AC42AF42E5E0BC41C1F313018F
:101F8000C3F31303801A994143F4801304D2641EEF
:101F90004000494180185941C90241EA5051B1FB02
:101FA000F3F603FB1611A2FB0675D7EBC020A9417F
:101FB00002D2761E80185941C90241EA5051B1FB44
:101FC000F3FE03FB1E11A2FB0E75D7EBC020A94147
:101FD00003D2AEF1010E80185941890241EA9051B5
:101FE000760546EA8E2EB1FBF3F603FB1611A2FB33
:101FF0000675D7EB8020A94102D2761E8018594180
:10200000C90241EA50514EEA060EB1FBF3F603FB5A
:102010001611A2FB0675D7EBC020A94102D2761E8D
:1020200080185941C90241EA5051B1FBF3F703FB53
:102030001711A2FB0735D3EBC020A94167F10007B8
:102040000CBF004247F0010766F3D5274FEA1E3167
:10205000B80814F5806412DDBD0775F1004250EB3D
:102060000E5051EB045111F5801F5CBF41EA0C0189
:10207000F0BD4CF07F6141F0E0410020F0BDBD07B4
:102080006D0840EA0E5041F48011D4F10104B4F11E
:1020900020060ADAC4F120060200E04001FA06F345
:1020A000E1401843B24015430EE0342C13DCC6F176
:1020B000200445EA40056D0820FA06F2154321FA8E
:1020C00006F0A1400D43002175F1004250F10000DF
:1020D00051EB0C01F0BD00205FEA0C01F0BDCFB95F
:1020E00092185B41B3FA83F704BFB2FA82F6BF19C4
:1020F0000B3FB7F120062FBF02FA06F3BB40C7F132
:10210000200622FA06F638BF3343BA401CB1E41960
:10211000641E33E77F4231F00041B1FA81F404BF1D
:10212000B0FA80F6A4190B3CB4F120062FBF00FAD8
:1021300006F1A140C4F1200620FA06F638BF31436B
:10214000A0403C1B1AE7AC421ABF05EA1357AF4246
:1021500012E050EA41061CBF52EA4306BFE750EACC
:102160004107304661461CBF41EA0551F0BD52EAC5
:10217000430C08BFC143F0BD00204FF4001616EB1E
:10218000410F98BF16EB430F08BF16EB410F24BF5A
:10219000C14305E016EB430F0CBF61464CEA055105
:1021A000F0BD0000400D491840EA81200CD2490DD5
:1021B000A1F58061491C40F0004005DBD1F11F0111
:1021C00054BFC840C017704700207047014648B14F
:1021D000B0FA80F18840C91CC1F58461090501EBA2
:1021E000D021400570470000014870470000000002
:1021F000AC000020012000F0BFB8000070470000D4
:1022000070B44FF0004591EA030F7FF53DAE6B408F
:10221000841A71EB030604D26E40001BB1411219FF
:1022200073414FF4001C1CEB410F34BF7CEB4306A1
:1022300082E00C0DA4EB1356362E7BDC012E45EA12
:10224000C32341DC43EA525312BFD20292025B081D
:10225000240545EAC12141EA5051D2EBC020994101
:1022600025D407D1B0FA80F610FA06F162D000202A
:10227000203608E0B1FA81F6B140C6F1200220FA1A
:1022800002F21143B0404FEAF474B4EB465434F018
:1022900001064FEA74040AD8D6F50016760D04F04C
:1022A0000044F04061FA06F25040F1404840C00A54
:1022B00040EA415021F0004128BF5FEA500550F14B
:1022C000000044EBD12135E0DB0A45EAC121C90A0F
:1022D000B6F120050EDD42EA0242120CC5F12006DD
:1022E00003FA06F6EB4042EA06056D42984161F1B9
:1022F00000010DE062FA06F5F240554063FA06FC73
:1023000082EA0C02F3405A406D42904161EB0301B6
:1023100011F4801F05D1641E620502D06D0040419A
:10232000494121F48011430875F1004350F1000048
:1023300041EB045170BC70471CEB410F15D223F0E8
:10234000004352EA43060BD04FEA4C0CBCEB410F62
:1023500004D80C0D661E342EB7DDEBE7801A9941C8
:1023600050EA410608BF0021E4E708BF1CEB430F19
:1023700028BF6FF00001DDE780B5AFF30080024AAF
:1023800011001820ABBEFBE72600020010B40022AB
:10239000491E05E0835C445C84544354521C491E2E
:1023A0008A42F7DB10BC704738B50C0000250AE004
:1023B0000A2190FBF1F301FB1301303161556D1CD3
:1023C0000A2190FBF1F00028F2D1954203DA302087
:1023D00060556D1CF9E729002000FFF7D7FF0020AA
:1023E0006055280032BD2DE9F84306000D001400A9
:1023F000300000F035FE8046404600F047FE010008
:10240000300000F055FE0700002229004046FFF78B
:10241000CBFF0600002C22D02E20A855380000F05B
:1024200087FE804689462000FFF714FD02000B005E
:102430000020DFF8481B01F02BFA42464B46FFF71D
:10244000BFFA01F03DFC220005EB0601491C0C001F
:10245000150000F005FE2A002100FFF7A5FFBDE8EA
:10246000F18310B586B0002000208DF80000DFF861
:10247000103B3422DFF80C1B002001F086FC040026
:102480002000C0B200281DD0BB23DFF8FC2ADFF8F3
:10249000FC1ADFF8FC0A01F097FFDFF8F40A01F0FC
:1024A000B3FFE4B22300DFF8EC2ADFF8EC1ADFF820
:1024B000E00A01F089FFDFF8D80A01F0BDFF002033
:1024C00001F0CCFF0121DFF8B80A006801F0ADFC93
:1024D00004002000C0B200281DD0BF23DFF8A82AC6
:1024E000DFF8A81ADFF8A80A01F06EFFDFF8A00AEB
:1024F00001F08AFFE4B22300DFF8A02ADFF8981A7F
:10250000DFF88C0A01F060FFDFF8840A01F094FF25
:10251000002001F0A3FF0121DFF8640A006801F048
:10252000E6FC04002000C0B200281DD0C323DFF861
:10253000582ADFF8581ADFF8580A01F045FFDFF88B
:10254000500A01F061FFE4B22300DFF8542ADFF8FB
:10255000481ADFF83C0A01F037FFDFF8340A01F0CF
:102560006BFF002001F07AFF0121DFF8140A0068F8
:1025700001F0A2FC04002000C0B200281DD0C72337
:10258000DFF8042ADFF8041ADFF8040A01F01CFF60
:10259000DFF8FC0901F038FFE4B22300DFF8042A79
:1025A000DFF8F419DFF8E80901F00EFFDFF8E009C1
:1025B00001F042FF002001F051FF41F2883000F0AD
:1025C00080F9DFF8BC09006801F0BEFC04002000BF
:1025D000C0B200281DD0CE23DFF8AC29DFF8AC193B
:1025E000DFF8AC0901F0F0FEDFF8A40901F00CFF00
:1025F000E4B22300DFF8B029DFF89C19DFF8900976
:1026000001F0E2FEDFF8880901F016FF002001F07A
:1026100025FF28E06946DFF86809006801F0A8FC9A
:1026200004002000C0B200281DD0D423DFF85829B0
:10263000DFF85819DFF8580901F0C6FEDFF8500935
:1026400001F0E2FEE4B22300DFF86029DFF8481968
:10265000DFF83C0901F0B8FEDFF8340901F0ECFEC8
:10266000002001F0FBFE9DF800000028D2D00A21D6
:10267000DFF80C09006801F08FFC04002000C0B2F4
:1026800000281DD0D923DFF80029DFF80019DFF872
:10269000000901F099FEDFF8F80801F0B5FEE4B298
:1026A0002300DFF80C29DFF8F018DFF8E40801F068
:1026B0008BFEDFF8DC0801F0BFFE002001F0CEFE4B
:1026C000DFF8F018DFF8B808006801F05BFC0400E0
:1026D0002000C0B200281DD0DD23DFF8AC28DFF8D1
:1026E000AC18DFF8AC0801F06FFEDFF8A40801F0C9
:1026F0008BFEE4B22300DFF8C028DFF89C18DFF877
:10270000900801F061FEDFF8880801F095FE0020D6
:1027100001F0A4FEC82005900120029064200490DE
:10272000DFF89808039002A9DFF85408006801F068
:102730003DFC04002000C0B200281DD0E723DFF8D4
:102740004828DFF84818DFF8480801F03DFEDFF8B8
:10275000400801F059FEE4B22300DFF86428DFF8F6
:102760003818DFF82C0801F02FFEDFF8240801F0FC
:1027700063FE002001F072FE0121DFF8040800680A
:1027800001F05BFC04002000C0B200281DD0EB2348
:10279000DFF8F427DFF8F417DFF8F40701F014FE90
:1027A000DFF8EC0701F030FEE4B22300DFF8142874
:1027B000DFF8E417DFF8D80701F006FEDFF8D007EE
:1027C00001F03AFE002001F049FE01A9DFF8B00750
:1027D000006801F00DFC04002000C0B200281DD0EC
:1027E000EF23DFF8A427DFF8A417DFF8A40701F030
:1027F000EBFDDFF89C0701F007FEE4B22300DFF8F1
:10280000C827DFF89417DFF8880701F0DDFDDFF84F
:10281000800701F011FE002001F020FE0021DFF80A
:102820006007006801F009FC04002000C0B2002825
:102830001DD0F323DFF85027DFF85017DFF85007DB
:1028400001F0C2FDDFF8480701F0DEFDE4B223002D
:10285000DFF87827DFF84017DFF8340701F0B4FD20
:10286000DFF82C0701F0E8FD002001F0F7FDDFF8AC
:102870001007006801F0BEFA04002000C0B2002872
:102880001DD0F723DFF80027DFF80017DFF8000777
:1028900001F09AFDDFF8F80601F0B6FDE4B223007E
:1028A000DFF82C27DFF8F016DFF8E40601F08CFDE6
:1028B000DFF8DC0601F0C0FD002001F0CFFD06B01E
:1028C00010BD82B00021019101994A1C0192814200
:1028D00008D20021009100991029F5DA0099491CCD
:1028E0000091F8E702B0704738B584B001F0B8FD48
:1028F000FFF7B7FDDFF8DC0604226946FFF773FD3A
:10290000DFF8D406042202A9FFF76DFD0020DFF8EE
:10291000CC460020DFF8C816088001F0C4FD050091
:102920002800C0B200281ED040F23513DFF8582628
:10293000DFF85816DFF8580601F046FDDFF85006BC
:1029400001F062FDEDB22B00DFF89826DFF84816A3
:10295000DFF83C0601F038FDDFF8340601F06CFDCD
:10296000002001F07BFD0121012001F021FE050086
:102970002800C0B200281ED04FF49C73DFF8082650
:10298000DFF80816DFF8080601F01EFDDFF8000684
:1029900001F03AFDEDB22B00DFF84C26DFF8F81518
:1029A000DFF8EC0501F010FDDFF8E40501F044FD6F
:1029B000002001F053FD0121002001F0F9FD050088
:1029C0002800C0B200281ED040F23B13DFF8B82523
:1029D000DFF8B815DFF8B80501F0F6FCDFF8B00550
:1029E00001F012FDEDB22B00DFF80026DFF8A8158C
:1029F000DFF89C0501F0E8FCDFF8940501F01CFD10
:102A0000002001F02BFDDFF8E815DFF8840501F068
:102A1000DBFCDFF87C0501F00FFD00210FF2A9308F
:102A200001F006FF05002800C0B200281ED040F2C9
:102A30004313DFF85425DFF85415DFF8540501F08F
:102A4000C3FCDFF84C0501F0DFFCEDB22B00DFF832
:102A5000A425DFF84415DFF8380501F0B5FCDFF8F0
:102A6000300501F0E9FC002001F0F8FC042001F041
:102A7000D3FF05002800C0B200281ED040F2471343
:102A8000DFF80425DFF80415DFF8040501F09CFCED
:102A9000DFF8FC0401F0B8FCEDB22B00DFF858259C
:102AA000DFF8F414DFF8E80401F08EFCDFF8E0044E
:102AB00001F0C2FC002001F0D1FC2000FEF720FE56
:102AC000002300220100C9B2200002F033F8040004
:102AD0002000C0B200281ED04FF4A573DFF8A82450
:102AE000DFF8A814DFF8A80401F06EFCDFF8A004FA
:102AF00001F08AFCE4B22300DFF80025DFF8981427
:102B0000DFF88C0401F060FCDFF8840401F094FC31
:102B1000002001F0A3FC00F0C1F902F060F804000D
:102B20002000C0B200281ED04FF4A873DFF858244C
:102B3000DFF85814DFF8580401F046FCDFF85004C1
:102B400001F062FCE4B22300DFF8B424DFF848149B
:102B5000DFF83C0401F038FCDFF8340401F06CFCD1
:102B6000002001F07BFC8120DFF89814087005201C
:102B7000DFF890144870DFF89014DFF8140401F0C7
:102B800023FCDFF80C0401F057FC29E0DFF87C049B
:102B900002F076FC6846FEF7B3FDDFF86814887132
:102BA0006846FEF7ADFD6946DFF864440200200088
:102BB000FEF7D8FF0120DFF84C241421DFF84C0485
:102BC000008802F01FF8C0B2002809D0DFF84414D2
:102BD000DFF8BC0301F0F8FBDFF8B40301F02CFCD4
:102BE000DFF8340404226946FFF7FDFBC82001F03A
:102BF00041FE04002000C0B200281ED040F2611344
:102C0000DFF88423DFF88413DFF8840301F0DCFBB2
:102C1000DFF87C0301F0F8FBE4B22300DFF8FC23CB
:102C2000DFF87413DFF8680301F0CEFBDFF8600310
:102C300001F002FC002001F011FCDFF8E403007851
:102C400001282AD1DFF8C40302F01AFC6846FEF717
:102C500057FDDFF8B01388716846FEF751FD6946ED
:102C6000DFF8AC4302002000FEF77CFF0120DFF814
:102C700094231421DFF89403008801F0C3FFC0B24D
:102C8000002811D0DFF88C13DFF8040301F09CFB5F
:102C9000DFF8FC0201F0D0FB06E0DFF888030078E3
:102CA000112801D000F0FAF8002459E0DFF874038D
:102CB0000078112853D000F0F1F850E0DFF8FC0262
:102CC00030F8140002F0FAFB04226946FFF78BFB90
:102CD000C82001F0CFFD05002800C0B2002817D0A1
:102CE0004FF4C973A84AA949A94801F06DFBA84847
:102CF00001F08AFBEDB22B00DFF82023A649A4489F
:102D000001F062FBA24801F097FB002001F0A6FB56
:102D1000DFF80C0300780128C8D1BC4802F0B0FBF2
:102D20006846FEF7EDFCB74988716846FEF7E8FC97
:102D300002006946B64D2800FEF714FF0120B14A93
:102D40001421B248008801F05DFFC0B2002806D00F
:102D5000B0498F4801F038FB8D4801F06DFB641CD1
:102D6000642CABDBB04804226946FFF73CFBC8206B
:102D700001F080FD04002000C0B2002816D040F20F
:102D8000C313814A8149824801F01EFB804801F04B
:102D90003BFBE4B22300A14A7F497D4801F014FBCC
:102DA0007B4801F049FB002001F058FB9C4800786B
:102DB00001283FF4EBAE9B48007811283FF410AF98
:102DC00000F06CF80CE7000080B5491E4DD0491E9C
:102DD0004CD0491E52D04FF40070091A35D0491E0C
:102DE0000AD0491E13D0491E37D040F2FA20091AE2
:102DF0001BD0491E21D049E08C49654801F0E4FA16
:102E0000634801F019FB01208549087045E08849B5
:102E10005F4801F0D9FA5E4801F00EFB00208149BD
:102E2000087000207E49087037E08249584801F058
:102E3000CBFA574801F000FB2FE07F49544801F0DE
:102E4000C3FA534801F0F8FA27E07C49504801F0F2
:102E5000BBFA4F4801F0F0FA1FE079494C4801F005
:102E6000B3FA4B4801F0E8FA17E016E07549484814
:102E700001F0AAFA464801F0DFFA0EE07249444830
:102E800001F0A2FA424801F0D7FA06E06F49404843
:102E900001F09AFA3E4801F0CFFA01BD10B50022C8
:102EA0000021112001F0DCFD04002000C0B2002848
:102EB00016D040F24723344A3449354801F084FAA9
:102EC000334801F0A1FAE4B22300614A32493048A4
:102ED00001F07AFA2E4801F0AFFA002001F0BEFAB4
:102EE00041F2883140F2032001F0CAFC04002000C6
:102EF000C0B2002816D040F24A23234A234924486E
:102F000001F062FA224801F07FFAE4B22300514A4C
:102F100021491F4801F058FA1D4801F08DFA0020A0
:102F200001F09CFA3F4801F0F2FD04002000C0B21D
:102F3000002816D040F24D23134A1449144801F0DA
:102F400043FA134801F060FAE4B22300424A1249FE
:102F50000F4801F039FA0E4801F06EFA002001F036
:102F60007DFA30480078112806D03C49084801F025
:102F70002BFA074801F060FA10BD00000000244061
:102F8000DC0D00204C0D00207C740000487A00000D
:102F9000BC0A0020847800004077000048790000D7
:102FA000A078000060770000BC780000F075000099
:102FB000807700008096980090760000F409002049
:102FC000D87800001876000060790000B476000020
:102FD0009C790000CB016943800E4940B079000024
:102FE000082C004040760000D8760000E87400000D
:102FF00014750000A0770000C0770000FC76000088
:1030000040750000800D0020B4730000940D002076
:10301000870D0020F478000000F8A0456C750000D2
:10302000F60D0020F70D00200028CD45EC790000BA
:10303000FC790000C47900000C7A0000D879000007
:10304000E077000098750000B87400000078000078
:1030500010790000C47500002C7900002078000071
:10306000C0F3C7517E390EDDC217D1F1200106DD54
:10307000000240F00040C840104450407047D04328
:1030800080F000407047002070470000C217504099
:10309000801AB0FA80F10AD08840D1F19D01D207A0
:1030A00042EAC151020672F1004241EB1020704722
:1030B00090EA010F42F1108281F00041421A3CBFB8
:1030C000801A89184FF0004CC0F3C752FF2A24D051
:1030D000C1F3C75313B3D21AD2F1190327DD4CEA57
:1030E00001214CFA03F321EA0303D140C20D4CEA5B
:1030F0000020401834BF20EA0C004CEA5000D205F2
:1031000053EA006373EB0C0C52EB1020420012F1F7
:10311000807F38BF7047C00DC0057047490212BF9D
:103120009A4200EB5120F8E7D2F11703D9D5704746
:10313000C0F3C75181B1FF2906D0C110400721F06B
:10314000E04101F16051704741020CBF40F4E001E1
:103150006FF000410020704700F0004100020AD0EB
:10316000B0FA80FC00FA0CF001F16051A1EB0C51B7
:1031700001EBD021400570472DE9F04D8AB0129C3B
:1031800014B1129C002525601F46164627F0004307
:10319000002226F0000A934208BF924514D004464C
:1031A0000D460020DFF8601622462B4602F000FA9A
:1031B0000AD0DFF8581602F0FBF909D17800401563
:1031C000401C05D1390303D10020DFF83C165CE335
:1031D00068004015401C0DD025F00041002224F06D
:1031E0000000914208BF904204D078004015401C76
:1031F00040F0EA8068004015401C04D1290302D049
:103200002046294641E378004015401C04D139038B
:1032100002D03046394638E378004015401C4FF064
:10322000010C00F0808039464A0042EADA7B002235
:1032300000234FEA4A0A9B4504BF9245CDE9006747
:1032400030461CD040F23342A2EB5B52352A06DBFB
:1032500000F0000201F00043CDE900230FE0202A36
:1032600004DDA2F12000C140814000E001D1002036
:1032700003E0002AC4BFD0409040CDE90001BB4626
:1032800000229345B24605DA4FF00041B2EB0A0A3C
:1032900061EB0B0BDDE90001914204DA4FF00043D2
:1032A000101A63EB01018B450CBF82459446DDE9A2
:1032B00000014B0043EAD07342000026B34208BF2E
:1032C000B24217D040F2344EAEEB5352352A04DBF3
:1032D00000F0000001F000410CE0202A03DD203A5C
:1032E000D140914000E001D1002003E0002AC4BF9A
:1032F000D0409040BCF1000F15D0DDE90023B3426F
:1033000004DA4FF0004BB21A6BEB0303B14204DA5C
:103310004FF0004B301A6BEB01018B4206BF82422B
:10332000B4464FF0010C68004015401C06D129033B
:1033300004D1EC0F1AD1FE0F43D020E078004015E5
:10334000401C1DD139031BD125F00041B1F5801F70
:1033500024F0000020D20023994208BF9842009335
:103360001FD06A462946FEF751FC1AE0FE0F03D132
:10337000BCF1000F25D020E0BCF1000F09D183E2A1
:10338000BCF1000F14BFEC0F0024FE0F13D184B169
:1033900000204FF0004178E2DFF8742402EB115076
:1033A0000090FE0F009802D1002809DC01E00028FF
:1033B00006DD002068E21CB10020DFF8581464E24A
:1033C0000020DFF8541460E2394630464B0043EAEF
:1033D000D07342004FF0000A534504BF5245CDE977
:1033E000006719D040F2334CACEB5352352A04DB62
:1033F00000F0000001F000410CE0202A03DD203A3B
:10340000D140914000E001D1002003E0002AC4BF78
:10341000D0409040CDE90001E80F1ED0394651451B
:10342000304605DA4FF00043BAEB000063EB0101D0
:10343000DDE90023534505DA4FF0004BBAEB0202F9
:103440006BEB0303994208BF904206D0AFF30080B4
:103450004FF0FF306FF0004117E225F00041B1F569
:10346000801F24F000000CD2514508BF5045CDF814
:1034700008A011D002AA2946FEF7C8FB04460D4653
:103480000AE0DFF88C2302EB11500290DFF88C1376
:10349000DFF88C0305400D43E80F3CD0DDE9000167
:1034A0004B0043EAD0734200534508BF524525F014
:1034B00000451AD04B0040F2344C43EAD073ACEBD9
:1034C0005352352A04DB00F0000001F000410CE00B
:1034D000202A03DD203AD140914000E001D10020B4
:1034E00003E0002AC4BFD0409040DDE900235345EB
:1034F00005DA4FF0004BBAEB02026BEB03035145C8
:1035000005DA4FF0004BBAEB00006BEB01018B4288
:1035100008BF824202D1CDF80CA001E00121039145
:10352000029801282FD120462946BE4ABE4BFEF7FD
:10353000A5FB28D24800400DD046DFF8CCB200F100
:10354000010211D0002A0FDD40F2FF70824206DB3B
:10355000B14905F00043002443EA010532E06FF36E
:103560001E5141EA02552DE025F0004324F00002EF
:10357000434508BF424525D001222046FEF7AEFB59
:1035800004460D461EE00020A84922462B46FEF7C1
:1035900017FADFF888B200225B46FEF731FEFEF72D
:1035A0003BFCA0F120084046FEF754FC0022A04B53
:1035B000FEF706FA00225B46FEF722FE82468B46A5
:1035C0004FEA48182046294652465B46FEF754FC0F
:1035D000CDE9000152465B4620462946FEF710FE23
:1035E00002460B46DDE90001FEF7B8FCCDE9040117
:1035F000DDE90423FEF7E4F9CDE900015246204657
:1036000029465B46FEF738FCCDE90601DDE90023DB
:1036100088488949FEF7D4F9884A894BFEF7F0FDBE
:10362000DDE90023FEF7CCF9864A874BFEF7E8FD7B
:10363000DDE90023FEF7C4F9844A854BFEF7E0FD7F
:10364000DDE90023FEF7BCF9824A834BFEF7D8FD83
:10365000DDE90023FEF7B4F9804A814BFEF7D0FD87
:10366000DDE90023FEF7ACF97E4A7F4BFEF7C8FD8B
:10367000CDE908015246002063495B46FEF7FCFB9A
:103680000B465A00520D02F1010411D0002C0FDD3F
:1036900040F2FF72944205DB5F4D01F000400024D0
:1036A000054312E06FF31E5343EA045504460CE051
:1036B00021F00043002420F00002A3420EBFA242EA
:1036C0000122FEF70BFB04460D46DDE90023DDE990
:1036D0000801FEF775F9DDE90623FEF7CDFB22466A
:1036E0002B46FEF78DFDDDE90423FEF769F90FF2A5
:1036F000B01202EB0805DDE90623FEF781FD8246E4
:1037000002988B46FEF7A6FBD5E90023FEF778FD6D
:10371000CDE900015246554855495B46FEF750F940
:10372000DDE90023FEF76CFD32463B46FEF748F923
:103730000022504BFEF7A2FA62D301224E4BFEF755
:10374000B5FA56D9CA0F1ABF00224C4B334BFEF7BD
:1037500057FDFEF761FB044632463B46504659464C
:10376000FEF72EF982468B46D5E90201D5E90423FE
:10377000FEF746FD32463B46FEF722F9404A414BF2
:10378000FEF71EF952465B46FEF73AFD05468B46AC
:10379000DDE9000132463B46FEF712F906460F46C8
:1037A0002046FEF757FB02460B4630463946FEF7E9
:1037B00063FB334A334BFEF703F92A465B46FEF7B9
:1037C0001FFD129A0AB114600024009400220E4BCF
:1037D00001F0FEFE21F00045002220F00004954299
:1037E00008BF94420CD04A005215521C03D10B035F
:1037F00001D100200849039A2AB181F0004144E038
:1038000000200021F7E740E00000F03F0000F0BF9B
:1038100002FCFFFF0000F0FF0000F07F0000E03F2F
:10382000FFFF0F80CD3B7F669EA0E63F000050402B
:103830000000903FF7DE29BFD8F8C23FF4B3FECCBA
:103840001A99C33F62CB68D96F46C73FC6C912DA1F
:10385000C471CC3F4AE98A942449D23FF75F9799D3
:103860009999D93FBC5555555555E53FFE822B6575
:103870004715F73F0000E0C00000E0400000E0BF57
:10388000EF39FAFE422EE63F00210AB0BDE8F08D86
:103890001CB500240094FFF76FFC1CBD0000000065
:1038A000000000000000F0BF0000000000000080E9
:1038B0000000000000000080000000000000000088
:1038C000000000C05294EEBF00000048204E51BEE0
:1038D000000000F86467BCBC0000000000000000AD
:1038E000000000208133EDBF00000080B3DB14BE78
:1038F000000000506706A3BC0000000000000000AC
:10390000000000D0E9DCEBBF00000008C39259BE04
:1039100000000080B0D3B8BC000000000000000030
:1039200000000070F98FEABF000000C0A51028BE9B
:10393000000000E8BFC0B0BC0000000000000000B4
:1039400000000070284CE9BF00000060134B42BE2D
:10395000000000C03D20B8BC0000000000000000D6
:1039600000000050FA10E8BF000000C05FF62BBE58
:10397000000000905C71A7BC000000000000000087
:1039800000000020FCDDE6BF000000C0F8F154BEDE
:1039900000000018E9F6B9BC0000000000000000BB
:1039A000000000D0C3B2E5BF00000070E43254BE96
:1039B00000000050DB06B4BC000000000000000066
:1039C00000000010EF8EE4BF00000020F36252BE42
:1039D000000000C02A879ABC000000000000000020
:1039E000000000B02272E3BF000000F0E8E056BE25
:1039F00000000028352DBDBC0000000000000000C4
:103A0000000000000A5CE2BF000000B0FA8E41BE78
:103A100000000040AE6FBDBC0000000000000000D0
:103A200000000000564CE1BF000000F015CD5FBE65
:103A300000000000141C90BC00000000000000000A
:103A400000000040BD42E0BF00000030F93457BE26
:103A5000000000E06C1E93BC0000000000000000AD
:103A6000000000E0F57DDEBF000000B08A535EBEBE
:103A700000000080DA77AABC00000000000000000F
:103A8000000000C09D81DCBF00000000FFA226BE38
:103A90000000006057E2B0BC000000000000000021
:103AA00000000060F98FDABF000000580A8151BEA3
:103AB000000000F05F60B8BC0000000000000000E3
:103AC0000000000098A8D8BF000000607A7F45BEC3
:103AD000000000D05433A3BC000000000000000030
:103AE000000000600FCBD6BF000000D091CB40BEDD
:103AF000000000406D1BA0BC0000000000000000A2
:103B0000000000A0FBF6D4BF00000098C5CE52BE56
:103B1000000000003A397EBC0000000000000000F8
:103B2000000000E0FE2BD3BF0000004073872BBED7
:103B300000000000926879BC000000000000000056
:103B400000000040C069D1BF00000058F16353BEBF
:103B500000000080438D7CBC0000000000000000DD
:103B600000000080D85FCFBF000000181F8354BE44
:103B7000000000B03F42A2BC0000000000000000B6
:103B80000000008067FCCBBF00000060FAFF53BE5E
:103B900000000050E00DB8BC000000000000000074
:103BA0000000000098A8C8BF000000607A7F35BE02
:103BB000000000C0543393BC00000000000000006F
:103BC00000000000DC63C5BF00000058D6FF54BEF3
:103BD00000000000396490BC0000000000000000FC
:103BE000000000C0AD2DC2BF00000080A45915BE6A
:103BF000000000E0484BABBC0000000000000000EB
:103C0000000000801A0BBEBF00000050BF3C5ABE2F
:103C1000000000A0B364B6BC00000000000000007B
:103C20000000008004D6B7BF00000040BBCF36BE06
:103C30000000008076CEA8BC00000000000000005C
:103C40000000008032BBB1BF000000402A0043BE2C
:103C500000000028C60CBDBC0000000000000000F1
:103C6000000000009473A7BF000000182B3B59BE52
:103C7000000000C0E55DA5BC0000000000000000E1
:103C800000000000EE4397BF000000A0E6C340BE66
:103C900000000020958DB5BC000000000000000071
:103CA0000000000000000080000000000000008014
:103CB0000000000000000080000000000000000084
:103CC00001F000428B1AA3F16051B1F5801F0ADBAD
:103CD000B1F17F6F1FD242EAC102C10071F1004110
:103CE00042EB507070470B15C3F10903212B10D222
:103CF000890241EA905180020128494141F0004186
:103D000021FA03F0C3F12003994071F100415041C1
:103D10007047100070476FF0000013EB103F5CBF5E
:103D2000000E42EAC0507047010049B2002909D490
:103D3000012210F01F018A40DFF8701640B24009DE
:103D400041F820207047010049B200290DD401221A
:103D500010F01F018A40DFF8581640B2400941F8C0
:103D60002020BFF34F8FBFF36F8F7047010049B220
:103D7000002909D4012210F01F018A40DFF834160F
:103D800040B2400941F82020704770B504000E0091
:103D900011001D0000200022300001F0E7FDEFF3CC
:103DA000108072B6DFF8101641F83460DFF808169C
:103DB00001EBC4014968716080F31088402071688C
:103DC00008802E20FFF7D2FF2E20FFF7ADFF43F62D
:103DD000014071680884300000F03EFA0020306332
:103DE0000FF201307061DFF8D00550F83400286020
:103DF000002070BD10B504000021200000F015F86F
:103E00000100C9B2002901D0C0B20DE000206168F4
:103E100008840020616888812E20FFF794FF00202D
:103E2000DFF894150860002010BD38B504000022AA
:103E3000009200220025C9B201291ED12068C007C6
:103E400037D46946002000F091FB002813D1009878
:103E50004CF25031B0FBF1F06168098851F001017A
:103E6000626811808005800D61688880206850F04C
:103E7000010020601DE00F251BE02168C90718D54F
:103E8000216889070AD5002100F016F805002800EE
:103E9000C0B2002802D02800C0B20CE060680188DF
:103EA0004FF6FE70014060680180206840084000C5
:103EB00020602800C0B232BDC9B201290AD14168D0
:103EC000098851F0100142681180016851F0020127
:103ED00001600AE041680A884FF6EF710A404168C4
:103EE0000A80016831F0060101600020704710B4BB
:103EF000002243681C884FF6F1731C4043681C8005
:103F0000C9B2002905D0022918D009D303290ED03F
:103F100015E04168098851F00601406801800FE012
:103F20004168098851F004014068018008E0416857
:103F3000098851F008014068018001E000E0062294
:103F40001000C0B210BC7047016831F4807101608C
:103F50004FF4804142689184016851F08001016012
:103F60004168098851F020014068018000207047B5
:103F70000068C00502D50120087001E0002008702B
:103F8000002070474268128A12F47F42491E0A4399
:103F900040680282002070474268128A02F0FF02E5
:103FA00052EA0122406802820020704738B50500BD
:103FB0000C000020206800F03CF915F118020121E6
:103FC000118001215180A168012903D1118851F08C
:103FD00002011180546061689160A1684843D0601B
:103FE00020681061002128006A699047002032BDD6
:103FF00070B505000E000024E869002801D10320F7
:104000001AE0002215F13001002000F07BFBC0B265
:10401000002801D00A200FE0A87E10F0020000283E
:1040200000D00D24E86930600020E861286830F095
:10403000080028602000C0B270BD10B50400C9B2ED
:1040400001290AD1206850F0080020602E20FFF7D7
:104050006BFE200000F014F80AE02E20FFF773FE3C
:104060000621200062699047206830F00800206037
:10407000002010BDDFF8441301EB8000008870477A
:1040800010B541688A8912F4005210F118030168D2
:10409000490607D44FF6FF714468A1844FF6FF71BB
:1040A0004468218519690A43197811F00101002932
:1040B00001D052F480521978890702D552F4804217
:1040C00001E052F40042016851F040010160416892
:1040D00089890A4341688A81012142699047012008
:1040E00010BD000070B5040014F11805206A002806
:1040F0000FD1C9B202290AD16068858C05F0FF058D
:10410000290089B2200000F079F8606885840020D9
:1041100073E0C9B2002908D0012909D002293AD098
:1041200003294DD0062950D066E00020206163E0CD
:1041300062E02169491C21612169082901D300211C
:1041400021610121266911FA06F60642F1D028699B
:104150002169C840C00709D440F2FB72DFF8601241
:10416000DFF8600201F036FCAFF300802069FFF752
:1041700081FFA9680880A868801CA86060688684A0
:10418000E868401EE8602069401C2061206908281A
:1041900001D300202061E868002805D06068808C89
:1041A00000F0FF00010606D1E868002802D12000D7
:1041B00000F033F820E00121266911FA06F6C4E781
:1041C000688850F00200688016E06068058C002066
:1041D000616808840020616888816068808C6168FB
:1041E0008884206830F040002060FF21200000F02B
:1041F00005F860680584FFE7002070BD38B50C0045
:10420000002507E02000E840C00702D52800FFF79E
:1042100031FF6D1C082DF5D331BD80B500214268FA
:104220009181016831F040010160303000F0C2FA44
:1042300001BD00F0FF0010F05501400810F05500DE
:10424000401810F03301800810F03300401810EBD4
:10425000101010F00F0070470021002243689A826E
:1042600051F0040140680180704770B552480468FD
:104270006068808C00060DD02068800604D402217E
:1042800020006269904705E06068808C00F0FF00C4
:10429000616888846068808C10F47F4000284BD06F
:1042A0006068808C00040FD5206850F00400206006
:1042B0004FF4004061688884E068002804D0002240
:1042C0000121A068E36898476068808C40040FD59E
:1042D000206850F4807020604FF4804061688884CA
:1042E000E068002804D000220021A068E368984715
:1042F0006068808CC00507D5206850F4007020608D
:104300004FF48070616888846068808C800507D570
:10431000206850F4005020604FF400706168888479
:104320006068808C400507D5206850F4804020608C
:104330004FF48060616888846068008D00280AD02E
:104340006068058D2068800603D40321200062691F
:104350009047606805856068808D002825D060687A
:10436000858D206880061ED5E06800281BD00026B9
:1043700017E03000C0B240002900C140C80704D592
:1043800032000321A068E36898477000401C2900B0
:10439000C140C80704D532000421A068E3689847EB
:1043A000761C042EE5D36068858570BD00E100E0D1
:1043B00080E100E080E200E000000020307000407A
:1043C000FC730000407A00000CB430B583B00446A2
:1043D00006A802900A4600250194009502AB01A9A7
:1043E000084878441E30FCF70BFA01990D7000283C
:1043F0004EBF04460198041B204603B030BC5DF854
:104400000CFB00BFAFD2FFFF38B584B0040001A899
:104410000F4991E82C0080E82C0068460D490A6895
:10442000026001A801F0E8FA200001F0E5FA684610
:1044300001F0E2FA05B030BD80B56946064A13685E
:104440000B6001F0D9FA684601F0D6FA01BD000010
:10445000287A00005C7A0000607A000001F0E0BA7F
:10446000C020064908604FF4A870054908605FF451
:104470000010044908600020704700BF000002409F
:104480004000024080000240010049B2002909D4E6
:10449000012210F01F018A40DFF8481340B24009A2
:1044A00041F82020704780B54CF61430DFF83813FF
:1044B00008600220DFF8341308600020DFF83013B2
:1044C00008604CF61430DFF820130860DFF81C0396
:1044D000006850F00200DFF814130860DFF80C03E6
:1044E00000688005FAD5DFF80C03006880088000BA
:1044F000DFF8001308600020DFF8F8120860DFF82A
:10450000F802DFF8F812086046F61A00DFF8F01239
:1045100008601F20DFF8EC1208600020DFF8E812C6
:1045200008600020DFF8E41208600020DFF8E012E5
:1045300008604CF61430DFF8B0120860DFF8AC0207
:10454000006830F00400DFF8A41208600620FFF7CE
:104550009BFF0720FFF798FF2920FFF795FF2B20EF
:10456000FFF792FF01F064FA002002BD38B50500A4
:104570000C0001F05DFADFF8A0020168EDB2002D39
:104580000ED0012D12D1DFF87402006810F03F0048
:10459000002800D10120B1FBF0F02060002032BDE6
:1045A000DFF858020068C0F30520F1E70420F6E7C1
:1045B00080B50022C0B2002816D0022819D01DD222
:1045C0003F2089B2EFF3108372B6DFF83022126811
:1045D00032EA00000143DFF82402016083F310880F
:1045E00001F026FA002002BD4FF47C5089B2090286
:1045F000E8E75FF47F0089B20904E3E70420F2E70B
:1046000010B58648046814F006047948006800284C
:1046100012D0600707D5002208217E480068744B3D
:104620001B68984708E0A00706D5002207217948B3
:1046300000686F4B1B6898477848046010BD10B540
:104640007648046814F4CC440021694800680028C6
:104650001CD0002C1AD0600402D551F004010DE0EA
:10466000A00402D551F0030108E0A00502D551F0E5
:10467000050103E0600501D551F00601002905D0D0
:104680000022644800685A4B1B689847002C01D0F0
:104690006248046010BD80B561480168C8070FD545
:1046A00053480068002805D000225A480068504B43
:1046B0001B6898475A48006850F001005849086044
:1046C00001BD10B55648046849480068002811D05B
:1046D000600706D5002200214E480068444B1B6845
:1046E0009847A00706D5002201214A480068404BA0
:1046F0001B6898474A48006814F006040443484879
:10470000046010BDF0B4002300240025002902D16C
:1047100053F0020343490500EDB2002D07D0022DEE
:1047200023D002D3032D23D025E0002040E054F015
:104730000604EFF3108572B644F659063A4F3E6010
:10474000324E3668B608B600C0B230432F4E3060E5
:10475000364800680343A34334480360EFF31183F2
:10476000D2B2520182F311880FE053F00403E0E764
:1047700053F00603DDE706201AE0BFF34F8F30BF8A
:1047800085F31088EFF3108572B608680028F4D01E
:104790000868401E086083F311882448006830F0E0
:1047A000020022490860BFF34F8F85F31088002074
:1047B000F0BC7047002100280DD11A48EFF310819A
:1047C00072B61A4A126832F00202184B1A60BFF32E
:1047D0004F8F81F310880168491C016000207047E9
:1047E0000000000000E100E00CC1044010C10440E2
:1047F000D00D002000C304400404100004C3044092
:104800000CC3044014C3044000C0044008C004406A
:1048100044C00440D40D0020E00D002018C3044023
:1048200004C00440D80D00200CC0044010ED00E08E
:1048300080B55B4A10605B480160012300220FF2E3
:104840001111002001F098F9C0B2002801D0012018
:104850000FE00FF2E50000F0C5F80100C9B2002931
:1048600001D0C0B205E041F288314FF4807000F011
:1048700007F802BD80B50100002000F001F802BD7C
:1048800038B504000020080000F069F8C0B2002824
:1048900001D0012044E00BE000F002FE8DF80000A2
:1048A0006A462DB229003F4800683D4B1B68984777
:1048B00000F052F801281CD000F042F80128F7D18E
:1048C00000F041F800F0B3FD05002800210000B21F
:1048D00009B288421AD0324800680028E8D028007F
:1048E00000B2B0F5C06F13D0B0F5E06FD4D00022A5
:1048F000D7E724B2002C01D1002400E0012400F00D
:1049000059F8C0B2002809D0012009E00024F6E7D8
:1049100000F0C1FD8DF800006A46C2E72000C0B279
:1049200032BD80B5C00703D50820FFF7A9FF02E01C
:104930000920FFF7A5FF02BD01201B490870704741
:104940001948007870470020174908707047000028
:10495000012016490870704714480078704780B5E8
:10496000010089B24900124A918080B2400010498A
:10497000C8800F49002001F055F9C0B2002801D0CD
:1049800001200CE00020094908700121002001F0FD
:104990008BF9C0B2002801D0012000E0002002BD48
:1049A000C80D0020CC0D0020F50D0020F40D0020D6
:1049B0000800002080B50021002001F075F90028D2
:1049C00001D0012000E0002002BD000001210170A3
:1049D00070474FF6C041A0F801107047C170704792
:1049E0008180704780B501F02EFAC0B2002801D056
:1049F000012010E00023002200214FF4807000F01D
:104A000035F90100C9B2002904D14FF47A710820A8
:104A1000FFF787FFC0B202BD11B581B09DF8040059
:104A2000DFF8441209684870012201A9DFF8380252
:104A3000006810F10C042000FDF794F80023002218
:104A400001214FF4007000F011F90100C9B20029F2
:104A500004D14FF47A710120FFF763FFC0B216BD95
:104A60002DE9F14181B00D001400012201A9DFF808
:104A7000F801006810F10C063000FDF773F8002D06
:104A800005D1002C03D14FF40176012725E040F237
:104A9000052603270222DFF8D001006810F10D0877
:104AA00029004046FDF75EF8002C16D040F206269D
:104AB000FF1D0622DFF8B001006810F10F0521008C
:104AC0002800FDF74FF80122A11DDFF89C010068C6
:104AD00010F115042000FDF745F89DF80400DFF8FB
:104AE000881109688870002300223900C9B230009B
:104AF00000B200F0BBF80100C9B2002904D14FF4A4
:104B00007A710820FFF70DFFC0B2BDE8F68180B5CD
:104B100002000123002140F2072000F0A7F8010065
:104B2000C9B2002904D14FF47A710120FFF7F9FED0
:104B3000C0B202BD7FB504000020012201A9DFF848
:104B40002801006810F10C052800FDF70BF89DF80E
:104B50000420DFF81401006810F10D052100280081
:104B6000FDF700F89DF80800032805D140F21A244B
:104B70009DF804506D1C1EE040F21B249DF804506B
:104B80002D1D012202A9DFF8E00000689DF8043025
:104B9000184410F10D063000FCF7E4FF022203A9CF
:104BA000DFF8C40000689DF80430184410F10E06C8
:104BB0003000FCF7D7FF002300222900C9B22000F3
:104BC00000B200F053F80100C9B2002904D14FF43B
:104BD0007A710120FFF7A5FEC0B204B070BD80B5A8
:104BE0000023002200214FF4A06000F03FF80100F4
:104BF000C9B2002904D14FF47A710120FFF791FE68
:104C0000C0B202BD71B581B00C001500022201A92D
:104C1000DFF85400006810F10C063000FCF7A2FF2A
:104C2000DFF84400006884732200D2B2DFF8380055
:104C3000006810F10F0629003000FCF793FF0023F5
:104C40000022E41C2100C9B240F2015000F00EF82D
:104C50000100C9B2002904D14FF47A710820FFF78E
:104C600060FEC0B276BD0000140000202DE9F041C6
:104C700006000F0014001D00DFF83C080068868065
:104C800017F10608DFF830080068801DFFF79EFE68
:104C9000DFF824080068801DFFF79BFEBF1C390069
:104CA000C9B2DFF814080068801DFFF797FE3100D5
:104CB00009B2DFF804080068801DFFF791FE002CA0
:104CC0000BD0002D09D0DFF8F0070068C0F888404D
:104CD000DFF8E4070068C0F88C505FFA88F84146B6
:104CE000DFF8D4070068801D01F050F9C0B2002839
:104CF00001D1002000E00120C0B2BDE8F08180B504
:104D00000A00D2B2032A01D2012028E0DFF8A82746
:104D1000126892F84620042A01D001201FE0DFF833
:104D20009827126892F847200270DFF88C271268E3
:104D300092F8482042704278C9B2C91E8A4201D016
:104D400001200CE001780E2902D100F009F806E0FC
:104D50000178FF2902D100F037F800E0012002BD00
:104D6000DFF85417096891F84A10C02901D00120D2
:104D700029E0DFF84417096891F84B10FC2901D0AD
:104D8000012020E0DFF83017096891F84D10DFF8B6
:104D90002827126892F84C2052EA01224280DFF85C
:104DA0001817096891F84E100171DFF80C1709689F
:104DB0004F3181604178062901D2012003E041781A
:104DC000891F417000207047DFF8EC16096891F8E0
:104DD0004910A02901D0012020E0DFF8DC16096885
:104DE00091F84B10DFF8D026126892F84A2052EA68
:104DF00001224280DFF8C016096891F84C10017159
:104E0000DFF8B41609684D3181604178042901D278
:104E1000012003E04178091F41700020704780B5F0
:104E200001780E2902D100F004F801E000F003F946
:104E300002BD38B5040000F038FB00B2618888423A
:104E400040F0C78060884FF48171401A0DD040F265
:104E50000111401A2AD00F3860D0C01E41D0F3385B
:104E60007AD0401E00F08E809DE0607804281AD130
:104E7000DFF844060068D0F88C00042813D1DFF86E
:104E800038060068D0F88800A1684978A2681278CE
:104E900052EA01220280A168C978A268927852EA97
:104EA0000122428001E00B20207194E06078072805
:104EB00014D1DFF804060068D0F88C0007280DD163
:104EC000DFF8F4050068D0F888500622A1682800B1
:104ED000FCF748FEA0688079A87101E00B202071E2
:104EE00079E0DFF8D4050068D0F88C006178491EBD
:104EF000884210D3DFF8C0050068D0F88800A168A8
:104F000009784160A1680A78A168491C05682800F1
:104F1000FCF728FE01E00B2020715CE0607800289F
:104F200017D0DFF894050068D0F88C00052810D160
:104F3000DFF884050068D0F88800A168097801705E
:104F400001784A00A168491C851C2800FCF70AFE6C
:104F500001E00B2020713EE0607800280FD0DFF8E0
:104F600058050068D0F88C00012808D1DFF8480502
:104F70000068D0F88800A1680978017001E00B2072
:104F8000207128E0DFF830050068D0F8881020791B
:104F9000012802D10020087004E02079002801D106
:104FA0000120087017E0DFF810050068D0F88C00C9
:104FB000617888420AD36278A168DFF8FC0400684F
:104FC000D0F888502800FCF7CDFD01E00B202071BF
:104FD00001E00B2020712079002814D0012814D082
:104FE000022814D0032814D0042814D0052814D083
:104FF000062814D0072814D0102814D0112814D053
:10500000122814D015E0082014E00A2012E009202C
:1050100010E00B200EE00C200CE00D200AE00E202A
:1050200008E00F2006E0102004E0122002E0132028
:1050300000E0032032BD38B50400608840F2011161
:10504000401A30D0401E3BD0FE38012857D9001FEF
:10505000022840F28980001F00F0D880401E00F036
:10506000E780401F00F0D280F23800F00A81401E35
:1050700000F01D81401E00F02A81401E00F0418199
:10508000401E00F054814FF4FE71401A00F09481EC
:105090004FF48071401A00F059814FF48071401A2A
:1050A00000F06A81B5E16078012801D00320BDE1FC
:1050B000A0680078DFF80014096881F8F400A8E11E
:1050C0006078032801D20320B0E1A0684078A1688D
:1050D000097851EA0021DFF8E0030068A0F8BC106D
:1050E000A0688078DFF8D013096881F8BE00A06856
:1050F000C01CDFF8C4130968C1F8C00089E16078FA
:105100000A2801D2032091E1A0680078DFF8A813F3
:10511000096881F8A6000622A068411CDFF8980300
:10512000006810F1A0052800FCF71CFDA068C079FC
:10513000DFF88413096881F8A700A06890F90800D7
:10514000DFF87413096881F8A800A068407ADFF8D6
:1051500068130968C1F8B000A0680A30DFF8581376
:105160000968C1F8AC0054E16078112801D003202F
:105170005CE1A0684078A168097851EA0021DFF875
:1051800038030068A0F8CC10A0688078DFF82813F6
:10519000096881F8CE00A068C078DFF81C130968A0
:1051A00081F8D5000622A068011DDFF80C03006815
:1051B00010F1CF052800FCF7D5FCA068807ADFF855
:1051C000F812096881F8D600A068007BA168C97A46
:1051D00051EA0021DFF8E0020068A0F8D810A068CA
:1051E000807BA168497B51EA0021DFF8CC0200688E
:1051F000A0F8DA10A068007CA168C97B51EA002100
:10520000DFF8B4020068A0F8DC1002E16078002842
:1052100001D103200AE16078DFF89C120968C1F827
:10522000F000A068DFF890120968C1F8EC00F0E027
:105230006078092801D20320F8E0A06800789E4930
:10524000096881F896000622A068411C9A48006807
:1052500010F190052800FCF785FCA06890F9070084
:105260009549096881F89700A068007A9249096811
:10527000C1F89C00A06809308F490968C1F89800FE
:10528000C7E06078032801D00320CFE0A068407811
:10529000A168097851EA002187480068A0F8C41085
:1052A000A06880788449096881F8C600B1E0607818
:1052B000022801D00320B9E0A0684078A1680978ED
:1052C00051EA00217C480068A0F8C410A1E0607891
:1052D000082801D00320A9E0A0684078A1680978D7
:1052E00051EA002174480068A0F8C4100622A068A2
:1052F000811C7148006810F1C6052800FCF732FCDB
:1053000087E06078032801D003208FE0A068407810
:10531000A168097851EA002167480068A0F8C41024
:10532000A06880786449096881F8C60071E06078F7
:10533000062801D0032079E00622A1685E480068B3
:1053400010F1B4052800FCF70DFC62E0607803283A
:1053500001D003206AE0A0684078A168097851EA8A
:10536000002155480068A0F8DE10A06880785249F6
:10537000096881F8E0004CE06078092801D003203A
:1053800054E0A0684078A168097851EA00214A48B1
:105390000068A0F8E2100622A068811C4648006858
:1053A00010F1E4052800FCF7DDFBA068007A424913
:1053B000096881F8EA002CE03F48006890F84F0047
:1053C000152802D26078032801D203202EE0A068BD
:1053D0004078A168097851EA002137480068A0F8B0
:1053E000F6103548006890F84F003349096881F895
:1053F000F8003148006890F84F202F48006810F1FD
:1054000050012D48006810F1F9052800FCF7AAFBAF
:10541000FFE72079002806D0608840F20111884219
:1054200001D0032002E0B4F9020000B232BD1FB582
:10543000092100222048006810F14604200000F0F5
:1054400095FA6A4640211C480068463000F0AEFDDF
:10545000C0B2002803D19DF80000002801D101202E
:105460000CE09DF8001001A8FFF749FCC0B200282D
:1054700001D0022002E001A8FFF7D1FC04B010BD6A
:1054800010B5040012220C48006810F1CC01200075
:10549000FCF768FB10BD0848006890F8E000704712
:1054A0000548006890F8EA00704703480068B0F9C2
:1054B00004007047000000001400002000280AD0FB
:1054C000B0FA80F18840D1F19D01C905020672F160
:1054D000004241EB10207047431A4FF000423EBF9C
:1054E0005340C01AC91800BFD3095FEAD05C13EB60
:1054F000400F34BFB3EB410F40E07CEBD1530CD3F2
:1055000042EA012122D8D1EB402009D3400A28BF2A
:105510005FEA500140EBCC507047401A15D0400272
:10552000B0FA80F2521C9040400A4FEA3C23B3EBA1
:10553000026384BF00EB730007E040F400001A161A
:10554000DB07C2F10102D04018437047182BFCDC86
:1055500031FA03F202FA03F3591A38BF42F001029A
:10556000D2EB40203CBF4000ACF1010C5FEACC5CC8
:10557000C20572F100414CEB5020704713EB400F15
:105580000FD2C94209D0ACEBD153022B03DB490245
:10559000172BDDDD70479143401AC042D5D1002062
:1055A000704713EB410FD0D36FF00000704700003D
:1055B00090420CD141EA030C50EA4C0C07D09942BE
:1055C00005D14FF4001C1CEB410F38BF89427047D6
:1055D0002DE9F04D04460D4668004015401C84B08E
:1055E00016461F461DD025F00041002224F0000081
:1055F000914208BF904214D078004015401C10D052
:1056000026F0000037F0004108BF904209D029463B
:10561000914280F28B804FF00043101B63EB01013D
:1056200084E068004015401C02D1290340F07281DB
:1056300078004015401C01D1390351D127F00043B7
:10564000002026F00002834208BF824206D1680093
:105650004015401C44D1290342D10BE0780040158D
:10566000401C0ED139030CD168004015401C37D1C5
:10567000290335D1AFF300804FF0FF306FF00041C8
:105680004AE125F000410022002324F00000994265
:1056900008BF904227D1394648000C9A400D121895
:1056A00080BB27F0004126F00000994208BF9842D5
:1056B00005D00C9A3946FCF711FB06460F4627F039
:1056C0000043002026F00002834208BF824205D03A
:1056D00078004015401C03D1390301D1AFF300809D
:1056E0003046394618E168004015401C1CD129039A
:1056F0001AD132463B462046294604B0BDE8F04D5B
:10570000FCF75EB9002ACCDD40F2FF70824206DB76
:10571000834907F00043002643EA0107CFE76FF310
:105720001E5141EA0257CAE700200AE07D4B93422E
:10573000BCBF4FF0004060EB030399429246104615
:1057400002DA07F00041E7E077498142BCBF4FF041
:10575000004363EB01012B468342224605DA4FF0FA
:10576000004BBAEB02026BEB0303994209DC01DB4D
:10577000904206D2AFF30080694907F00043194315
:10578000CAE06A486A4922462B46FCF719F9694B78
:1057900001F0004E00224EEA0303FCF731FDFCF756
:1057A0003BFB8046FCF756FB82468B464FF0784029
:1057B000614952465B46FCF703F902460B46204618
:1057C0002946FCF759FB04460D465C485C495246A5
:1057D0005B46FCF7F5F802460B4620462946FCF7E7
:1057E0004BFB0D4625F000410022564BFCF746FAD4
:1057F000044602D234463D4652E022462B46294614
:10580000FCF7DEF882468B464F48504952465B46CD
:10581000FCF7D6F84E4A4F4BFCF7F2FC52465B467B
:10582000FCF7CEF8CDE9020152464B484B495B46A6
:10583000FCF7C6F84A4A4B4BFCF7E2FC52465B4683
:10584000FCF7BEF800223B4BDFF81CB1FCF7D8FC9C
:1058500022462B46FCF7B4F804460D46DDE902016A
:1058600022462B46FCF7CCFC00225B46FCF7C8FC2A
:10587000CDE900012246DDE902012B46FCF7FCFAE6
:1058800000225B46FCF7BCFC02460B46DDE900014A
:10589000FCF764FB32463B46FCF792F804460D46A3
:1058A0000C9800EB080229464800400D02EB00036B
:1058B00011D0002B0FDD40F2FF70834206DB184948
:1058C00005F00043002443EA010512E06FF31E5186
:1058D00041EA03550DE025F00041002624F00000C8
:1058E000B14208BFB04204D02946FCF7F7F904469C
:1058F0000D4625F00043002024F00002834208BF3B
:10590000824205D068004015401C03D1290301D113
:10591000AFF300802046294604B0BDE8F08D0000BA
:105920000000F07F00C89CC000C89C40FE822B6530
:105930004715F73F0000E03F422EE63FF2E4D5BCBA
:10594000E7E84B3E0000903C112E5781A03F503FAE
:105950005843128C8F71BC3F4BE8A541B752013FB1
:105960000BBDF3DAE8708C3F0000F03F62F30F22CA
:1059700062F31F42401810F0030308D0C91A1FD366
:10598000DB0748BF00F8012D28BF20F8022D1300C7
:1059900030B414461546103928BF20E93C00FAD827
:1059A000490728BF20E90C0048BF40F8042D8900B2
:1059B00028BF20F8022D48BF00F8012D30BC7047E9
:1059C000C91818BF00F8012DCB0728BF00F8012D1A
:1059D0007047000000B583B00091019202906A46C2
:1059E00004491820ABBE002801D1FCF703FC03B02A
:1059F00000BD00BF101002000EB4C0B5024603A8DF
:105A000000210190009101AB0121044878440C3041
:105A1000FAF7F6FE06BC5DF810FB00BF5D1F000044
:105A2000074600F089FB3846FCF7A6FCFBE70000C0
:105A300010B43548006810F00300002805D0022893
:105A400010D00BD303282CD030E030483049086008
:105A50002F4800682F49086010BC70472B482C491C
:105A60000860F5E728480068000501D5274800E0F0
:105A7000264829490A6812F01F0227490968C1F31C
:105A8000C321254B1B68C3F30044234B1B68C3F39E
:105A90000023A0405043B0FBF1F0D8401C490860FF
:105AA000D6E71E4800681A490860D1E7D4E780B5F8
:105AB0000121062000F011F8EFF3108072B61849AA
:105AC000184A11605FF4E021174A1160BFF36F8F2D
:105AD000BFF34F8F80F3108801BD44F65902134B7A
:105AE0001A60C9B2012906D11149096851EA500169
:105AF0000F48016005E00E49096831EA50010C4881
:105B0000016000207047000000C3044080BA8C018F
:105B1000E00D0020E80D00200CC30440E40D00203F
:105B20000000000008ED00E024ED00E00CC004409F
:105B300014C00440010049B2002909D4012210F028
:105B40001F018A40DFF8501240B2400941F820207E
:105B50007047010049B200290DD4012210F01F0145
:105B60008A40DFF8381240B2400941F82020BFF3E4
:105B70004F8FBFF36F8F704738B50400DFF82002F6
:105B80002500EDB240F82510DFF818022100C9B257
:105B900040F82120DBB2012B06D183482100C9B295
:105BA0004056FFF7C7FF05E07F482100C9B24056C5
:105BB000FFF7CFFF7D482100C9B230F811007C49C2
:105BC0002200D2B251F8221008817A482100C9B2CD
:105BD00030F8110076492200D2B251F82210088024
:105BE00075482100C9B230F8110071492200D2B2C3
:105BF00051F82210888271482100C9B230F8110092
:105C00006B492200D2B251F8221008846C4821005E
:105C1000C9B230F811006649E4B251F82410888402
:105C2000002032BD38B504000D00A888604922006C
:105C3000D2B251F822100880E8885D492200D2B221
:105C400051F82210888240212000C0B200F059F89B
:105C5000002801D0062026E055482100C9B250F89E
:105C60002100018911F4C041A8780143E87851EA84
:105C700040116878012801D151F0080128780128E5
:105C800001D151F00401287A012801D151F080019D
:105C9000687A012801D151F400414548E4B250F836
:105CA00024000181002032BD38B504000D004021E0
:105CB0002000C0B200F025F8002801D006201FE027
:105CC0003B482100C9B250F8210001894FF6EF701E
:105CD000014037482200D2B250F822000181EDB2D3
:105CE000012D0CD132482100C9B250F821000089A1
:105CF00050F010002E49E4B251F824100881002021
:105D000032BD10B4002200E0521C13009BB2B3F568
:105D10007A7F09D2264B0400E4B253F824309B8BDF
:105D20000B42F1D1002000E0062010BC704770B596
:105D300004001F482100C9B250F82100858B184883
:105D40002100C9B250F8210000281DD0E8070CD569
:105D50000022012113482300DBB250F82300104B2E
:105D60002600F6B253F826309847A8070CD5002233
:105D700002210C482300DBB250F82300084B250019
:105D8000EDB253F82530984703200949E4B251F8A1
:105D90002410888170BD000000E100E080E100E097
:105DA000A80D0020B40D0020587A000078000020D3
:105DB000A00000208000002088000020900000202B
:105DC0009800002080B50020FFF7B1FF01BD80B52D
:105DD0000120FFF7ACFF01BD80B50220FFF7A7FF50
:105DE00001BD0000010049B2002909D4012210F0D0
:105DF0001F018A40DFF8281340B2400941F82020F3
:105E00007047010049B200290DD4012210F01F0192
:105E10008A40DFF8101340B2400941F82020BFF358
:105E20004F8FBFF36F8F7047010049B2002909D42B
:105E3000012210F01F018A40DFF8EC1240B2400945
:105E400041F820207047E0B5DFF8E0120968C1F89A
:105E500080001021B5480068303000F099F9C0B2D8
:105E6000002801D0012090E0B04803682C22AF4800
:105E70000068011D022000F087FAC0B2002801D09E
:105E8000022082E00021A9480068006800F0CAFAF8
:105E9000C0B2002801D0022077E0012208210020B2
:105EA00000F0C9F9C0B2002801D001206DE008213E
:105EB000002000F0A2F9C0B2002801D0012064E067
:105EC00008220A21002000F082F9C0B2002801D087
:105ED00001205AE000220FF2E9010A2000F0D9F96E
:105EE000C0B2002801D001204FE001222021012072
:105EF00000F08AF9C0B2002801D0012045E020213D
:105F0000012000F0AFF9C0B2002801D001203CE030
:105F100001224FF40061012000F076F9C0B20028A0
:105F200001D0012031E04FF40061012000F0A1F91F
:105F3000C0B2002801D0012027E00020019002E03B
:105F40000198401C019001984FF6FF718842F7D3E9
:105F50004FF40061012000F085F9C0B2002801D0A3
:105F6000012012E00020019002E00198401C019005
:105F700001984FF6FF718842F7D36A4640216B487B
:105F80000068403000F012F8C0B20EBD1CB50C0025
:105F90006B4622000100012000F019F89DF8001066
:105FA0008C4201D0042000E0C0B216BD80B51300C1
:105FB0000A000100002000F00AF8C0B202BD000093
:105FC00080B55A4B1B68D3F88030984701BD2DE946
:105FD000FE4380460D0016001F0000245FF00009FC
:105FE0000A20FFF721FF0A20FFF70BFF20210120E5
:105FF00000F03FF9002810D00A20FFF715FF0A2013
:10600000FFF7F0FE012088E019F10109BDF8040056
:1060100000280AD14648814507D201AA082100205C
:1060200000F02EF90028EFD001240A20FFF7FCFE33
:106030000A20FFF7D7FE2000C0B2002864D13C48F8
:10604000814501D306245FE002203A4908810220FD
:10605000384948810DF102003649086068463549E3
:1060600048604046C0B2012801D1422000E08120B2
:106070008DF8020000208DF8030000208DF800004C
:1060800000208DF801002B4928480068006800F0C6
:10609000CDF9002801D0042436E09DF801003870C5
:1060A0005FFA88F8B8F1010F11D13878B04201D207
:1060B000052429E03E7038781E49088100201D49DA
:1060C00048811C48056000201A4948600FE0387874
:1060D000864201D2052417E000201649088138784D
:1060E00014494881002013490860124845603878F7
